:100000000C9463000C948B000C948B000C94C5072B
:100010000C94C5070C94C5070C948B000C948B00B2
:100020000C948B000C948B000C948B000C9409079F
:100030000C948B000C948B000C948B000C948B0014
:100040000C94A4050C948B000C9472050C944C0534
:100050000C948B000C948B000C948B000C948B00F4
:100060000C94EE050C948B00000000002400270087
:100070002A0000000008000201000003040700003D
:1000800000000000000000000000230026002900FE
:1000900000000000250028002B00040404040404D0
:1000A0000404020202020202030303030303010227
:1000B00004081020408001020408102001020408F6
:1000C00010203D08B90B11241FBECFEFD8E0DEBFD2
:1000D000CDBF11E0A0E0B1E0E4EFFCE102C005908B
:1000E0000D92AC34B107D9F723E0ACE4B1E001C024
:1000F0001D92AE30B207E1F710E0C2E6D0E004C0D6
:100100002197FE010E94670EC136D107C9F70E94F0
:1001100036090C946D0E0C940000AF92BF92CF92F2
:10012000DF92EF92FF920F931F93CF93DF936C01B7
:100130007B018B01040F151FEB015E01AE18BF0898
:10014000C017D10759F06991D601ED91FC9101904A
:10015000F081E02DC6010995892B79F7C501DF9162
:10016000CF911F910F91FF90EF90DF90CF90BF90B4
:10017000AF900895FC01538D448D252F30E0842FDE
:1001800090E0821B930B541710F0CF9608950197BF
:100190000895FC01918D828D981761F0A28DAE0FAC
:1001A000BF2FB11D5D968C91928D9F5F9F73928F33
:1001B00090E008958FEF9FEF0895FC01918D828D5F
:1001C000981731F0828DE80FF11D858D90E008952C
:1001D0008FEF9FEF0895FC01918D228D892F90E084
:1001E000805C9F4F821B91098F739927089582E14C
:1001F00092E00E94EB0021E0892B09F420E0822F9D
:10020000089580E090E0892B29F00E94F700811189
:100210000C9400000895FC01A48DA80FB92FB11D06
:10022000A35ABF4F2C91848D90E001968F7399272C
:10023000848FA689B7892C93A089B1898C9183700A
:1002400080648C93938D848D981306C00288F38903
:10025000E02D80818F7D80830895EF92FF920F9330
:100260001F93CF93DF93EC0181E0888F9B8D8C8D62
:1002700098131AC0E889F989808185FF15C09FB756
:10028000F894EE89FF896083E889F9898081837019
:10029000806480839FBF81E090E0DF91CF911F91C8
:1002A0000F91FF90EF900895F62E0B8D10E00F5FE9
:1002B0001F4F0F731127E02E8C8D8E110CC00FB6BF
:1002C00007FCFACFE889F989808185FFF5CFCE0157
:1002D0000E940B01F1CFEB8DEC0FFD2FF11DE35AC6
:1002E000FF4FF0829FB7F8940B8FEA89FB898081DA
:1002F0008062CFCFCF93DF93EC01888D8823B9F054
:10030000AA89BB89E889F9898C9185FD03C0808120
:1003100086FD0DC00FB607FCF7CF8C9185FFF2CF9D
:10032000808185FFEDCFCE010E940B01E9CFDF91E7
:10033000CF91089590E0FC01EE58FF4F2491FC010D
:10034000E255FF4F3491FC01E656FF4FE491EE2356
:10035000C9F0222339F0233001F1A8F4213019F13A
:10036000223029F1F0E0EE0FFF1FE057FF4FA5917B
:10037000B4918FB7F894EC91611126C030953E236B
:100380003C938FBF08952730A9F02830C9F024305E
:1003900049F7809180008F7D03C0809180008F7726
:1003A00080938000DFCF84B58F7784BDDBCF84B5A9
:1003B0008F7DFBCF8091B0008F778093B000D2CF3C
:1003C0008091B0008F7DF9CF3E2BDACFCF93DF93B2
:1003D00090E0FC01E255FF4F249186569F4FFC01AF
:1003E00084918823D1F090E0880F991FFC01E8598F
:1003F000FF4FA591B491FC01E057FF4FC591D491F7
:1004000061110EC09FB7F8948C91E22FE0958E2376
:100410008C932881E223E8839FBFDF91CF910895D9
:100420008FB7F894EC91E22BEC938FBFF6CF3FB7E8
:10043000F8948091070290910802A0910902B0916E
:100440000A0226B5A89B05C02F3F19F00196A11DF1
:10045000B11D3FBFBA2FA92F982F8827BC01CD010E
:10046000620F711D811D911D42E0660F771F881F6D
:10047000991F4A95D1F708952091B801260F332787
:10048000331F21323105ECF42091DC01FC0190E0B6
:1004900080E0243069F082E00895A091B8012191B4
:1004A000AC0148565E4FA40FB52FB11D2C93019699
:1004B000861798F38091B801680F6093B80180E0C7
:1004C000089581E0089508958FEF9FEF08958FEFCD
:1004D0009FEF08958091910190E091958195910908
:1004E0000895CF93DF93CB01EA01642F0E943C0271
:1004F000CE01DF91CF910895CF93DF931F92CDB7B7
:10050000DEB7698361E0CE0101960E943C0281E082
:1005100090E00F90DF91CF910895089520918E0182
:1005200030918F012817390771F490918D018091D6
:100530008C01981741F0E0918D01F0E0E45BFE4FF3
:10054000808190E008958FEF9FEF0895EF92FF92E2
:100550000F931F93CF93DF93DC015C96ED90FC909B
:100560005D97E114F10479F481E090E013969C9397
:100570008E93129790E080E0DF91CF911F910F91C1
:10058000FF90EF9008955196ED91FC9152975096FF
:100590008C915097982F90950FB75E962C915E97FF
:1005A000122F127021FD6095F8942081112319F10A
:1005B000282B2083E7012197F1F728E0462F50E010
:1005C000308160FF1AC0382B3083E7012197F1F7A3
:1005D000BA0175956795215089F7112381F08081C3
:1005E000892380830FBF5C968D919C910197F1F7D1
:1005F00081E090E0C1CF2923DCCF3923E5CF908182
:10060000892BEFCF20918E0130918F012817390768
:1006100071F480918C0120918D0190E0805C9F4F5E
:10062000821B910960E470E00E943F0E089590E003
:1006300080E0089520918E0130918F0128173907AD
:10064000B9F490918D0180918C01981789F0E09117
:100650008D01F0E0E45BFE4F808120918D0130E060
:100660002F5F3F4F2F73332720938D0190E0089524
:100670008FEF9FEF089590E080E00895CF93DF9390
:10068000EC0160E08E810E949A0161E08E810E94FF
:100690009A0160E08E810E949A018BE891E00197B7
:1006A000F1F7DF91CF910895CF92DF92EF92FF9211
:1006B0000F931F93CF93DF936C017C0187E0E80ECB
:1006C000F11CD0E0C0E0062F10E0B8010C2E02C0F3
:1006D000759567950A94E2F76170F70181917F0142
:1006E0000E949A012196C430D10579F7C601DF91A5
:1006F000CF911F910F91FF90EF90DF90CF900C94CE
:100700003E03CF92DF92EF92FF920F931F93CF930E
:10071000DF93EC01F62E642F8C810E949A018D816B
:100720008F3F19F060E00E949A010F2D10E08F8535
:1007300084FF25C06E0187E0C80ED11CF12CE12C8E
:10074000B8010E2C02C0759567950A94E2F76170A6
:10075000F60181916F010E949A01FFEFEF1AFF0AE3
:1007600088E0E816F10461F7CE01DF91CF911F9187
:100770000F91FF90EF90DF90CF900C943E03B80163
:1007800084E0759567958A95E1F7CE010E94540340
:100790006F2DCE01DF91CF911F910F91FF90EF90C0
:1007A000DF90CF900C94540340E0682F86EF92E0E6
:1007B0000C948103CF93DF93823029F49091050349
:1007C0009860909305038093090310920A0380E4D4
:1007D00080930B0380E180930C0380E580930D03ED
:1007E00061E08091FA020E94E6018091FB028F3F56
:1007F00019F061E00E94E60161E08091FC020E9434
:10080000E601C6EFD2E09E01265F324080910503EB
:1008100084FD0BC084E090E021962817390744F44A
:1008200061E08E810E94E601EECF88E090E0F4CF97
:100830008BE39DE00197F1F760E08091FA020E945E
:100840009A0160E08091FC020E949A018091FB0273
:100850008F3F19F060E00E949A018091050384FDAA
:1008600039C063E086EF92E00E945403CBE4D6E403
:10087000CE010197F1F763E086EF92E00E94540306
:100880002197F1F763E086EF92E00E94540383E53D
:1008900092E00197F1F762E086EF92E00E94540344
:1008A0008091050380620E94D40384E08093060354
:1008B0008CE00E94D40381E00E94D4038BE39FE18B
:1008C0000197F1F782E08093070386E0DF91CF91F3
:1008D0000C94D40380620E94D4038BE496E40197C5
:1008E000F1F78091050380620E94D40383E592E0D2
:1008F0000197F1F78091050380620E94D403D0CF65
:1009000041E00E94810381E090E00895FC010190A4
:100910000020E9F73197AF01481B590BBC0186EF66
:1009200092E00C948D008F929F92AF92BF920F93A2
:100930001F93CF93DF93CDB7DEB7A1970FB6F8948F
:10094000DEBF0FBECDBF19A2423008F44AE08E01CF
:100950000F5D1F4F842E912CB12CA12CA501940169
:100960000E94D50BE62FB901CA01EA30F4F4E05D2C
:10097000D801EE938D01232B242B252B79F790E0C2
:1009800080E0109719F0CD010E948604A1960FB661
:10099000F894DEBF0FBECDBFDF91CF911F910F91B5
:1009A000BF90AF909F908F900895E95CE1CF1F9327
:1009B000CF93DF9385ED8093BC008091940190915B
:1009C0009501A0919601B09197010796A11DB11DC7
:1009D00023E0B695A795979587952A95D1F720910D
:1009E000BC0024FD03C01092DC0152C04091940170
:1009F000509195016091960170919701452B462B7E
:100A0000472B69F30097A105B10541F025E32A952D
:100A1000F1F700000197A109B109E1CF809193019D
:100A2000C1E0C0939201882399F1D091B800109150
:100A3000BA008091BC008A7B8093BC0060E082E1B8
:100A40000E949A0160E083E10E949A011092DC0109
:100A5000C093DE011092DD0161E082E10E949A0103
:100A600061E083E10E949A018091B9008E7F8093BA
:100A7000B9008091B9008D7F8093B90088E480939C
:100A8000B80085E48093BC001093BA00D093B800FE
:100A9000DF91CF911F9108951F920F920FB60F9281
:100AA00011242F933F934F935F936F937F938F9373
:100AB0009F93AF93BF93EF93FF9382E192E00E94E5
:100AC0000B01FF91EF91BF91AF919F918F917F911A
:100AD0006F915F914F913F912F910F900FBE0F90AB
:100AE0001F9018951F920F920FB60F9211242F93FB
:100AF0008F939F93EF93FF93E0912202F091230253
:100B00008081E0912802F091290282FD1BC0908132
:100B100080912B028F5F8F7320912C02821741F0FE
:100B2000E0912B02F0E0EE5EFD4F958F80932B025B
:100B3000FF91EF919F918F912F910F900FBE0F908A
:100B40001F9018958081F4CF1F920F920FB60F92CD
:100B500011242F933F938F939F93AF93BF938091D3
:100B6000030290910402A0910502B0910602309117
:100B7000020223E0230F2D3758F50196A11DB11D68
:100B8000209302028093030290930402A093050233
:100B9000B09306028091070290910802A091090289
:100BA000B0910A020196A11DB11D80930702909396
:100BB0000802A0930902B0930A02BF91AF919F91DE
:100BC0008F913F912F910F900FBE0F901F9018950E
:100BD00026E8230F0296A11DB11DD2CF1F920F92BE
:100BE0000FB60F9211242F933F934F935F936F9300
:100BF0007F938F939F93AF93BF93EF93FF938091D6
:100C0000B900887F803609F44AC0F0F5883209F4CB
:100C1000A5C018F5803109F499C0B8F4882309F407
:100C2000F5C0883009F492C0FF91EF91BF91AF9168
:100C30009F918F917F916F915F914F913F912F91F4
:100C40000F900FBE0F901F901895883109F486C041
:100C5000803251F78093DB0114C0803409F49BC0CB
:100C600040F48033B9F38833F9F68093DB0185ECE7
:100C7000AEC0803509F483C0883509F494C0883447
:100C800099F60E94D704D0CF883909F48AC038F584
:100C9000883729F050F4883611F0803729F683E040
:100CA0008093DC011092DA0155C0883809F479C0CC
:100CB000803919F0803809F0B7CF8091DA0180329D
:100CC00008F06FC0E091DA0181E08E0F8093DA01C5
:100CD0008091BB00F0E0E654FE4F80833BC0803B38
:100CE00039F0D0F4803A09F477C0883A09F09CCF03
:100CF00084E08093DC011092B9011092B801F0E019
:100D0000E0E009958091B80181110FC081E08093E6
:100D1000B8011092980109C0803C09F4A8CF883C22
:100D200009F4A5CF883B09F07FCFE091B90181E0BC
:100D30008E0F8093B901F0E0E856FE4F80818093DA
:100D4000BB009091B9018091B80129C08091010246
:100D50008093BB0085EC8093BC0066CF909100022D
:100D60008091FF01981758F5E091000281E08E0F05
:100D700080930002F0E0E152FE4F8081E9CFE091E4
:100D8000000281E08E0F809300028091BB00F0E0B2
:100D9000E152FE4F8083909100028091FF019817ED
:100DA000C8F285E8D8CFE091000281E08E0F8093F1
:100DB00000028091BB00F0E0E152FE4F8083809101
:100DC000DE0181115ECF81E08093DD0184EA8093B2
:100DD000BC001092DC0128CF85EC8093BC001092FF
:100DE000DC018091DA01803230F4E091DA01F0E048
:100DF000E654FE4F10826091DA0170E08AEB91E0D8
:100E0000F0E0E0E009951092DA010ECF1092DB01DC
:100E100038CF1F920F920FB60F9211242F933F934A
:100E20004F935F936F937F938F939F93AF93BF93F2
:100E3000CF93DF93EF93FF9380919001C091D30202
:100E4000D0E087FF24C0109285001092840080912A
:100E500090018F5F8093900180919001082E000C8B
:100E6000990B8C179D0724F4809190018C30C4F16C
:100E70008091840090918500049680349C4908F408
:100E80007AC08091840090918500049676C080910C
:100E90009001082E000C990B8C179D07C4F6E09169
:100EA00090018E2FEE0F990BFC01EE0FFF1FE80F44
:100EB000F91FE155FD4F808186FFC9CFE091900178
:100EC0008E2FEE0F990BFC01EE0FFF1FE80FF91F9D
:100ED000E155FD4F808160E08F730E949A01B7CF8A
:100EE0002091840030918500E09190018E2FEE0FCB
:100EF000990BFC01EE0FFF1FE80FF91FE155FD4FA5
:100F000081819281820F931F909389008093880042
:100F1000E09190018E2FEE0F990BFC01EE0FFF1F59
:100F2000E80FF91FE155FD4F808186FF11C0E09168
:100F300090018E2FEE0F990BFC01EE0FFF1FE80FB3
:100F4000F91FE155FD4F808161E08F730E949A0186
:100F5000FF91EF91DF91CF91BF91AF919F918F91D1
:100F60007F916F915F914F913F912F910F900FBEA5
:100F70000F901F90189580E49CE9909389008093CE
:100F800088008FEF80939001E3CF1F920F920FB6EE
:100F90000F9211242F933F934F935F936F937F93FF
:100FA0008F939F93AF93BF93EF93FF93E0918E0145
:100FB000F0918F01309749F0A685B7858585968D8C
:100FC00091FF14C09C918923A1F4FF91EF91BF91EF
:100FD000AF919F918F917F916F915F914F913F91D1
:100FE0002F910F900FBE0F901F9018959C91892301
:100FF00061F7A389B4899C918589809589238C9315
:10100000868997890197F1F7608D718DA685B785DF
:10101000558538E020E0CB010197F1F7822F90E071
:1010200095958795282F4C91452309F020683150DC
:1010300091F7868D81FD209580918C0190E001963D
:101040008F73992730918D01381799F0A0918C01F9
:10105000B0E0A45BBE4F2C9380938C01828D938D66
:101060000197F1F7A389B4898C919589892B8C9389
:10107000ACCF868D8160868FF1CFCF92DF92EF92D9
:10108000FF92109215021092140248EEC42E43E013
:10109000D42EE12CF12CC0921602D0921702E092CD
:1010A0001802F092190284E091E090931302809369
:1010B000120285EC90E090931F0280931E0284EC54
:1010C00090E0909321028093200280EC90E0909336
:1010D00023028093220281EC90E09093250280937A
:1010E000240282EC90E0909327028093260286EC03
:1010F00090E0909329028093280210922B02109284
:101100002C0210922D0210922E021092F9021092CF
:10111000F80288E291E09093F7028093F6028CE067
:101120008093FA028FEF8093FB028BE08093FC02A6
:1011300085E08093FD0284E08093FE0283E080934B
:10114000FF0282E0809300031092010310920203D9
:1011500010920303109204031092050381E00E9491
:10116000DA031092DA021092D902C092DB02D09216
:10117000DC02E092DD02F092DE0286E191E09093E3
:10118000D8028093D7021092EE021092ED021092D4
:10119000F0021092EF021092F2021092F1021092FD
:1011A000F4021092F3026091F5026E7F6D7F6093FE
:1011B000F5026695617081E068270E949A0161E0FE
:1011C00081E00E94E601EFEAF0E0E491E093E702BB
:1011D000EBE9F0E0E491F0E0EE0FFF1FE057FF4F86
:1011E000859194919093E9028093E80260E080E019
:1011F0000E94E6018091F50281FD04C061E080E07B
:101200000E949A011092E302EEEAF0E0E491E0938A
:10121000E402EAE9F0E0E491F0E0EE0FFF1FEA57A4
:10122000FF4F859194919093E6028093E50280911F
:10123000D3028C30B8F491E0980F9093D30280934E
:10124000D40290E0FC01EE0FFF1FE80FF91FE155FB
:10125000FD4F88EB9BE092838183FF90EF90DF90BE
:10126000CF9008958FEF8093D402F7CF789484B510
:10127000826084BD84B5816084BD85B5826085BD92
:1012800085B5816085BD80916E00816080936E0020
:101290001092810080918100826080938100809112
:1012A00081008160809381008091800081608093C3
:1012B00080008091B10084608093B1008091B00083
:1012C00081608093B00080917A00846080937A007E
:1012D00080917A00826080937A0080917A008160A8
:1012E00080937A0080917A00806880937A001092CF
:1012F000C100E0912202F091230282E08083E0911C
:101300001E02F0911F021082E0912002F091210252
:101310008FEC808310922A02E0912602F09127023E
:1013200086E08083E0912402F09125028081806133
:101330008083E0912402F09125028081886080837F
:10134000E0912402F0912502808180688083E09101
:101350002402F091250280818F7D80838091D402C8
:101360008C3008F051C061E08CE00E94E601809171
:10137000D402282F30E0F901EE0FFF1FE20FF31F18
:10138000E155FD4F9081907C9C6090831092D50236
:101390001092D6022CE0622F0E94330E829FB00181
:1013A000112430E020E0AB01420F531FFA01EE0F91
:1013B000FF1FE40FF51FE155FD4F908196FD16C00C
:1013C0002F5F3F4F2C30310571F781110FC0109204
:1013D000800082E08093810010928500109284004A
:1013E000B19A80916F00826080936F00E091D40287
:1013F0008E2F90E0FC01EE0FFF1FE80FF91FE15563
:10140000FD4F80818064808361E082E00E94E6017C
:1014100061E083E00E94E60161E084E00E94E60171
:1014200061E085E00E94E60160E08EE00E94E60156
:1014300081E00E94D4038BE39FE10197F1F782E002
:101440000E94DA0310E4C0E0D0E010937C008091A9
:101450007A00806480937A0080917A0086FDFCCFC8
:101460008091780060917900762F682F072E000C0C
:10147000880B990B0E940C0D20E030E040E450E412
:101480000E94F70B9B01AC0160E078E184ED95E4EC
:101490000E94690C20E030E040E850E40E94F70B25
:1014A00060930E0270930F028093100290931102CA
:1014B000E1E0809109038111E0E0E195F0E0EA507C
:1014C000FD4F848980680E94D40380E391E00E94EC
:1014D0008604E0910903E23008F079C0E150F0E0C1
:1014E000EA50FD4F84898C5F80680E94D403C090CD
:1014F0000E02D0900F02E0901002F0901102A701AE
:101500009601C701B6010E942E0E882309F461C01E
:101510008BE391E00E94860487E491E00E948604B8
:101520000E9417024B015C0184E6C82ED12CE12CED
:10153000F12C0E941702681979098A099B09683EF3
:10154000734081059105A8F321E0C21AD108E10892
:10155000F10888EE880E83E0981EA11CB11CC1140E
:10156000D104E104F10429F782E192E00E94EB004A
:10157000892B09F4F3C082E192E00E94C900A09196
:101580000D02E1E0EA0FE0930D020A2E000CBB0B06
:10159000A55FBD4F8C930E2E000CFF0BE65FFD4F39
:1015A0008081813309F0A9C061E082E00E949A0144
:1015B00061E083E00E949A0161E084E00E949A0168
:1015C00061E085E00E949A0110920D02CDCFE1E02A
:1015D00086CF46015701E894B7F82FEF3FEF4FE76A
:1015E0005FE7C501B4010E942E0E81110DC02FEFDF
:1015F0003FEF4FE75FE7C501B4010E94640C181686
:101600001CF48FE391E086CF2FEF3FEF4FE75FE4CD
:10161000C701B6010E94BC0D18161CF483E491E0CA
:1016200079CF2FEF3FEF4FE75FECC701B6010E9484
:10163000640C87FDF3CF20E030E0A901C701B601BB
:101640000E94640C87FF0AC041E06DE286EF92E0E1
:101650000E948103F7FAF094F7F8F0942AE037ED4E
:1016600043EA5BE3C701B6010E94F80B4B015C0142
:101670000E94DB0C6B017C010E940A0D9B01AC01F6
:10168000C501B4010E94F70B4B015C014AE0C701A0
:10169000B6010E94930441E06EE286EF92E00E9460
:1016A000810320E030E040E251E4C501B4010E9432
:1016B000C10D4B015C010E94DB0C6B01F12CE12C94
:1016C0004AE0C701B6010E949304C701B6010E9417
:1016D0000A0D9B01AC01C501B4010E94F70B20E08B
:1016E00030E040E251E40E94C10D0E94DB0C90E02A
:1016F00080E04AE00E9493040FCF823351F461E00E
:1017000082E00E949A0160E083E00E949A0160E01A
:1017100054CF833371F460E082E00E949A0161E06B
:1017200083E00E949A0161E084E00E949A0160E0F7
:1017300048CF843331F460E082E00E949A0161E096
:10174000E3CF853309F010CF60E082E00E949A0178
:1017500060E083E00E949A0160E0E6CF209709F400
:1017600074CE0E94F700882309F46FCE0E94000017
:101770006CCE86E191E09093D8028093D70280915D
:101780008E0190918F01875D924071F4E091EA02A1
:10179000F091EB0290818091EC0280958923808307
:1017A00010928F0110928E010895A1E21A2EAA1BA9
:1017B000BB1BFD010DC0AA1FBB1FEE1FFF1FA21701
:1017C000B307E407F50720F0A21BB30BE40BF50BFE
:1017D000661F771F881F991F1A9469F76095709587
:1017E000809590959B01AC01BD01CF0108955058A3
:1017F000BB27AA270E940F0C0C94820D0E94740D27
:1018000038F00E947B0D20F039F49F3F19F426F444
:101810000C94710D0EF4E095E7FB0C946B0DE92F21
:101820000E94930D58F3BA17620773078407950750
:1018300020F079F4A6F50C94B50D0EF4E0950B2E7E
:10184000BA2FA02D0B01B90190010C01CA01A00112
:101850001124FF27591B99F0593F50F4503E68F16D
:101860001A16F040A22F232F342F4427585FF3CFAE
:10187000469537952795A795F0405395C9F77EF47F
:101880001F16BA0B620B730B840BBAF09150A1F0C8
:10189000FF0FBB1F661F771F881FC2F70EC0BA0F4E
:1018A000621F731F841F48F4879577956795B795D6
:1018B000F7959E3F08F0B0CF9395880F08F09927D1
:1018C000EE0F9795879508950E94470D08F481E0E3
:1018D00008950E947D0C0C94820D0E947B0D58F09F
:1018E0000E94740D40F029F45F3F29F00C946B0DB9
:1018F00051110C94B60D0C94710D0E94930D68F368
:101900009923B1F3552391F3951B550BBB27AA27B8
:1019100062177307840738F09F5F5F4F220F331FF2
:10192000441FAA1FA9F335D00E2E3AF0E0E832D0BA
:1019300091505040E695001CCAF72BD0FE2F29D0BD
:10194000660F771F881FBB1F261737074807AB078F
:10195000B0E809F0BB0B802DBF01FF2793585F4F04
:101960003AF09E3F510578F00C946B0D0C94B60D37
:101970005F3FE4F3983ED4F3869577956795B795E6
:10198000F7959F5FC9F7880F911D9695879597F9F1
:101990000895E1E0660F771F881FBB1F621773076A
:1019A0008407BA0720F0621B730B840BBA0BEE1F7F
:1019B00088F7E09508950E949B0D88F09F5798F056
:1019C000B92F9927B751B0F0E1F0660F771F881F44
:1019D000991F1AF0BA95C9F714C0B13091F00E945E
:1019E000B50DB1E008950C94B50D672F782F8827B9
:1019F000B85F39F0B93FCCF3869577956795B39585
:101A0000D9F73EF490958095709561957F4F8F4FF3
:101A10009F4F0895E89409C097FB3EF490958095F8
:101A2000709561957F4F8F4F9F4F9923A9F0F92FA4
:101A300096E9BB279395F695879577956795B79522
:101A4000F111F8CFFAF4BB0F11F460FF1BC06F5F08
:101A50007F4F8F4F9F4F16C0882311F096E911C01A
:101A6000772321F09EE8872F762F05C0662371F03B
:101A700096E8862F70E060E02AF09A95660F771F4F
:101A8000881FDAF7880F9695879597F90895990F2B
:101A90000008550FAA0BE0E8FEEF16161706E80738
:101AA000F907C0F012161306E407F50798F0621B59
:101AB000730B840B950B39F40A2661F0232B242B2E
:101AC000252B21F408950A2609F4A140A6958FEF4D
:101AD000811D811D089597F99F6780E870E060E09F
:101AE00008959FEF80EC089500240A9416161706B7
:101AF00018060906089500240A94121613061406FF
:101B000005060895092E0394000C11F4882352F061
:101B1000BB0F40F4BF2B11F460FF04C06F5F7F4F19
:101B20008F4F9F4F089557FD9058440F551F59F000
:101B30005F3F71F04795880F97FB991F61F09F3FBA
:101B400079F087950895121613061406551FF2CFE3
:101B50004695F1DF08C0161617061806991FF1CF33
:101B600086957105610508940895E894BB2766275A
:101B70007727CB0197F908950E94470D08F48FEF5E
:101B800008950E94D40D0C94820D0E94740D38F0BB
:101B90000E947B0D20F0952311F00C946B0D0C949A
:101BA000710D11240C94B60D0E94930D70F3959F46
:101BB000C1F3950F50E0551F629FF001729FBB2744
:101BC000F00DB11D639FAA27F00DB11DAA1F649FE0
:101BD0006627B00DA11D661F829F2227B00DA11D93
:101BE000621F739FB00DA11D621F839FA00D611D19
:101BF000221F749F3327A00D611D231F849F600D3A
:101C0000211D822F762F6A2F11249F5750409AF062
:101C1000F1F088234AF0EE0FFF1FBB1F661F771FEE
:101C2000881F91505040A9F79E3F510580F00C94B9
:101C30006B0D0C94B60D5F3FE4F3983ED4F386959C
:101C400077956795B795F795E7959F5FC1F7FE2B59
:101C5000880F911D9695879597F908950E94470DD5
:101C6000880B990B0895991B79E004C0991F96176A
:101C700008F0961B881F7A95C9F78095089597FB01
:101C8000072E16F4009407D077FD09D00E94530E5A
:101C900007FC05D03EF4909581959F4F089570956F
:101CA00061957F4F0895AA1BBB1B51E107C0AA1F76
:101CB000BB1FA617B70710F0A61BB70B881F991FED
:101CC0005A95A9F780959095BC01CD010895EE0F26
:101CD000FF1F0590F491E02D099410E0C2E6D0E0DA
:101CE00004C0FE010E94670E2196C336D107C9F7D2
:041CF000F894FFCF96
:101CF400000000002D018D00BA007A01EB00C9003C
:101D0400DD0000000000A6028D003B036302020315
:101D14001A038E020000000080048D003B038D0234
:101D240044697374616E63653A20006E616E006984
:0C1D34006E66006F76660020636D000094
:00000001FF
